{
  "contractName": "SupplyChain",
  "abi": [
    {
      "inputs": [],
      "stateMutability": "nonpayable",
      "type": "constructor"
    },
    {
      "anonymous": false,
      "inputs": [
        {
          "indexed": false,
          "internalType": "uint256",
          "name": "sku",
          "type": "uint256"
        }
      ],
      "name": "LogForSale",
      "type": "event"
    },
    {
      "anonymous": false,
      "inputs": [
        {
          "indexed": false,
          "internalType": "uint256",
          "name": "sku",
          "type": "uint256"
        }
      ],
      "name": "LogReceived",
      "type": "event"
    },
    {
      "anonymous": false,
      "inputs": [
        {
          "indexed": false,
          "internalType": "uint256",
          "name": "sku",
          "type": "uint256"
        }
      ],
      "name": "LogShipped",
      "type": "event"
    },
    {
      "anonymous": false,
      "inputs": [
        {
          "indexed": false,
          "internalType": "uint256",
          "name": "sku",
          "type": "uint256"
        }
      ],
      "name": "LogSold",
      "type": "event"
    },
    {
      "inputs": [
        {
          "internalType": "uint256",
          "name": "",
          "type": "uint256"
        }
      ],
      "name": "items",
      "outputs": [
        {
          "internalType": "string",
          "name": "name",
          "type": "string"
        },
        {
          "internalType": "uint256",
          "name": "sku",
          "type": "uint256"
        },
        {
          "internalType": "uint256",
          "name": "price",
          "type": "uint256"
        },
        {
          "internalType": "enum SupplyChain.State",
          "name": "state",
          "type": "uint8"
        },
        {
          "internalType": "address payable",
          "name": "seller",
          "type": "address"
        },
        {
          "internalType": "address payable",
          "name": "buyer",
          "type": "address"
        }
      ],
      "stateMutability": "view",
      "type": "function"
    },
    {
      "inputs": [
        {
          "internalType": "string",
          "name": "_name",
          "type": "string"
        },
        {
          "internalType": "uint256",
          "name": "_price",
          "type": "uint256"
        }
      ],
      "name": "addItem",
      "outputs": [
        {
          "internalType": "bool",
          "name": "",
          "type": "bool"
        }
      ],
      "stateMutability": "nonpayable",
      "type": "function"
    },
    {
      "inputs": [
        {
          "internalType": "uint256",
          "name": "sku",
          "type": "uint256"
        }
      ],
      "name": "buyItem",
      "outputs": [],
      "stateMutability": "payable",
      "type": "function"
    },
    {
      "inputs": [
        {
          "internalType": "uint256",
          "name": "sku",
          "type": "uint256"
        }
      ],
      "name": "shipItem",
      "outputs": [],
      "stateMutability": "nonpayable",
      "type": "function"
    },
    {
      "inputs": [
        {
          "internalType": "uint256",
          "name": "sku",
          "type": "uint256"
        }
      ],
      "name": "receiveItem",
      "outputs": [],
      "stateMutability": "nonpayable",
      "type": "function"
    },
    {
      "inputs": [
        {
          "internalType": "uint256",
          "name": "_sku",
          "type": "uint256"
        }
      ],
      "name": "fetchItem",
      "outputs": [
        {
          "internalType": "string",
          "name": "name",
          "type": "string"
        },
        {
          "internalType": "uint256",
          "name": "sku",
          "type": "uint256"
        },
        {
          "internalType": "uint256",
          "name": "price",
          "type": "uint256"
        },
        {
          "internalType": "uint256",
          "name": "state",
          "type": "uint256"
        },
        {
          "internalType": "address",
          "name": "seller",
          "type": "address"
        },
        {
          "internalType": "address",
          "name": "buyer",
          "type": "address"
        }
      ],
      "stateMutability": "view",
      "type": "function"
    }
  ],
  "bytecode": "0x608060405234801561001057600080fd5b50336000806101000a81548173ffffffffffffffffffffffffffffffffffffffff021916908373ffffffffffffffffffffffffffffffffffffffff1602179055506000600181905550610e8d806100686000396000f3fe6080604052600436106100555760003560e01c806362d6bbdf1461005a578063a26be99914610142578063ad4b9cfb1461017d578063bfb231d214610280578063e7fb74c71461038e578063f61c899a146103bc575b600080fd5b34801561006657600080fd5b5061012a6004803603604081101561007d57600080fd5b810190808035906020019064010000000081111561009a57600080fd5b8201836020820111156100ac57600080fd5b803590602001918460018302840111640100000000831117156100ce57600080fd5b91908080601f016020809104026020016040519081016040528093929190818152602001838380828437600081840152601f19601f820116905080830192505050505050509192919290803590602001909291905050506103f7565b60405180821515815260200191505060405180910390f35b34801561014e57600080fd5b5061017b6004803603602081101561016557600080fd5b81019080803590602001909291905050506105af565b005b34801561018957600080fd5b506101b6600480360360208110156101a057600080fd5b81019080803590602001909291905050506106d9565b60405180806020018781526020018681526020018581526020018473ffffffffffffffffffffffffffffffffffffffff1681526020018373ffffffffffffffffffffffffffffffffffffffff168152602001828103825288818151815260200191508051906020019080838360005b83811015610240578082015181840152602081019050610225565b50505050905090810190601f16801561026d5780820380516001836020036101000a031916815260200191505b5097505050505050505060405180910390f35b34801561028c57600080fd5b506102b9600480360360208110156102a357600080fd5b8101908080359060200190929190505050610872565b60405180806020018781526020018681526020018560038111156102d957fe5b81526020018473ffffffffffffffffffffffffffffffffffffffff1681526020018373ffffffffffffffffffffffffffffffffffffffff168152602001828103825288818151815260200191508051906020019080838360005b8381101561034e578082015181840152602081019050610333565b50505050905090810190601f16801561037b5780820380516001836020036101000a031916815260200191505b5097505050505050505060405180910390f35b6103ba600480360360208110156103a457600080fd5b8101908080359060200190929190505050610993565b005b3480156103c857600080fd5b506103f5600480360360208110156103df57600080fd5b8101908080359060200190929190505050610c91565b005b60007f4627c48065af2a9648cbecdd4b9da340c00e501243cd49a8a71c30c987e8b7616001546040518082815260200191505060405180910390a16040518060c0016040528084815260200160015481526020018381526020016000600381111561045e57fe5b81526020013373ffffffffffffffffffffffffffffffffffffffff168152602001600073ffffffffffffffffffffffffffffffffffffffff1681525060026000600154815260200190815260200160002060008201518160000190805190602001906104cb929190610dba565b50602082015181600101556040820151816002015560608201518160030160006101000a81548160ff0219169083600381111561050457fe5b021790555060808201518160030160016101000a81548173ffffffffffffffffffffffffffffffffffffffff021916908373ffffffffffffffffffffffffffffffffffffffff16021790555060a08201518160040160006101000a81548173ffffffffffffffffffffffffffffffffffffffff021916908373ffffffffffffffffffffffffffffffffffffffff16021790555090505060018054016001819055506001905092915050565b80600260038111156105bd57fe5b6002600083815260200190815260200160002060030160009054906101000a900460ff1660038111156105ec57fe5b146105f657600080fd5b6002600083815260200190815260200160002060040160009054906101000a900473ffffffffffffffffffffffffffffffffffffffff168073ffffffffffffffffffffffffffffffffffffffff163373ffffffffffffffffffffffffffffffffffffffff161461066557600080fd5b60036002600085815260200190815260200160002060030160006101000a81548160ff0219169083600381111561069857fe5b02179055507f5a98827d06afe0e04647b3aed26f1ffb77171ad9ac41603c4ef623a6638798c1836040518082815260200191505060405180910390a1505050565b60606000806000806000600260008881526020019081526020016000206000018054600181600116156101000203166002900480601f01602080910402602001604051908101604052809291908181526020018280546001816001161561010002031660029004801561078d5780601f106107625761010080835404028352916020019161078d565b820191906000526020600020905b81548152906001019060200180831161077057829003601f168201915b5050505050955060026000888152602001908152602001600020600101549450600260008881526020019081526020016000206002015493506002600088815260200190815260200160002060030160009054906101000a900460ff1660038111156107f557fe5b92506002600088815260200190815260200160002060030160019054906101000a900473ffffffffffffffffffffffffffffffffffffffff1691506002600088815260200190815260200160002060040160009054906101000a900473ffffffffffffffffffffffffffffffffffffffff16905091939550919395565b6002602052806000526040600020600091509050806000018054600181600116156101000203166002900480601f01602080910402602001604051908101604052809291908181526020018280546001816001161561010002031660029004801561091e5780601f106108f35761010080835404028352916020019161091e565b820191906000526020600020905b81548152906001019060200180831161090157829003601f168201915b5050505050908060010154908060020154908060030160009054906101000a900460ff16908060030160019054906101000a900473ffffffffffffffffffffffffffffffffffffffff16908060040160009054906101000a900473ffffffffffffffffffffffffffffffffffffffff16905086565b80600060038111156109a157fe5b6002600083815260200190815260200160002060030160009054906101000a900460ff1660038111156109d057fe5b146109da57600080fd5b6000600260008381526020019081526020016000206002015414156109fe57600080fd5b600073ffffffffffffffffffffffffffffffffffffffff166002600083815260200190815260200160002060030160019054906101000a900473ffffffffffffffffffffffffffffffffffffffff1673ffffffffffffffffffffffffffffffffffffffff161415610a6e57600080fd5b600260008381526020019081526020016000206002015480341015610a9257600080fd5b826002600085815260200190815260200160002060030160019054906101000a900473ffffffffffffffffffffffffffffffffffffffff1673ffffffffffffffffffffffffffffffffffffffff166108fc60026000878152602001908152602001600020600201549081150290604051600060405180830381858888f19350505050158015610b25573d6000803e3d6000fd5b50336002600086815260200190815260200160002060040160006101000a81548173ffffffffffffffffffffffffffffffffffffffff021916908373ffffffffffffffffffffffffffffffffffffffff16021790555060016002600086815260200190815260200160002060030160006101000a81548160ff02191690836003811115610bae57fe5b02179055507fe64ca8c671e48636f85f3008c1dd538e36bfa74fb6f2790b56b72fcc33b879ef846040518082815260200191505060405180910390a1600060026000838152602001908152602001600020600201549050600081340390506002600084815260200190815260200160002060040160009054906101000a900473ffffffffffffffffffffffffffffffffffffffff1673ffffffffffffffffffffffffffffffffffffffff166108fc829081150290604051600060405180830381858888f19350505050158015610c88573d6000803e3d6000fd5b50505050505050565b8060016003811115610c9f57fe5b6002600083815260200190815260200160002060030160009054906101000a900460ff166003811115610cce57fe5b14610cd857600080fd5b6002600083815260200190815260200160002060030160019054906101000a900473ffffffffffffffffffffffffffffffffffffffff168073ffffffffffffffffffffffffffffffffffffffff163373ffffffffffffffffffffffffffffffffffffffff1614610d4757600080fd5b600280600085815260200190815260200160002060030160006101000a81548160ff02191690836003811115610d7957fe5b02179055507feaf695929fec8154f0eafe7248c0e16855eb9ad09e623be92f669e544d53e856836040518082815260200191505060405180910390a1505050565b828054600181600116156101000203166002900490600052602060002090601f016020900481019282601f10610dfb57805160ff1916838001178555610e29565b82800160010185558215610e29579182015b82811115610e28578251825591602001919060010190610e0d565b5b509050610e369190610e3a565b5090565b5b80821115610e53576000816000905550600101610e3b565b509056fea26469706673582212208d3ed1aba19b5235fc280359f2d9408807c57932d1c0f6a3d4f2835ed7bfab5264736f6c634300060c0033",
  "immutableReferences": {},
  "source": "/*\n    This exercise has been updated to use Solidity version 0.6\n    Breaking changes from 0.5 to 0.6 can be found here: \n    https://solidity.readthedocs.io/en/v0.6.12/060-breaking-changes.html\n*/\n\npragma solidity >=0.6.0 <0.7.0;\n\ncontract SupplyChain {\n\n\t/* set owner */\n\taddress owner;\n\n\t/* Add a variable called skuCount to track the most recent sku # */\n\tuint skuCount;\n\n\t/* Add a line that creates a public mapping that maps the SKU (a number) to an Item.\n     Call this mappings items\n\t*/\n\tmapping (uint => Item) public items;\n\n\t/* Add a line that creates an enum called State. This should have 4 states\n    ForSale\n    Sold\n    Shipped\n    Received\n    (declaring them in this order is important for testing)\n\t*/\n\tenum State { ForSale, Sold, Shipped, Received }\n  \n\n\t/* Create a struct named Item.\n    Here, add a name, sku, price, state, seller, and buyer\n    We've left you to figure out what the appropriate types are,\n    if you need help you can ask around :)\n    Be sure to add \"payable\" to addresses that will be handling value transfer\n\t*/\n\tstruct Item {\n\t\tstring name;\n\t\tuint sku;\n\t\tuint price;\n\t\tState state;\n\t\taddress payable seller;\n\t\taddress payable buyer;\n\t}\n\n\t/* Create 4 events with the same name as each possible State (see above)\n    Prefix each event with \"Log\" for clarity, so the forSale event will be called \"LogForSale\"\n    Each event should accept one argument, the sku */\n    event LogForSale(uint sku);\n    event LogSold(uint sku);\n    event LogShipped(uint sku);\n    event LogReceived(uint sku);\n\t\n\n\t/* Create a modifer that checks if the msg.sender is the owner of the contract */\n\tmodifier isOwner() { require(msg.sender == owner); _;}\n\n\tmodifier verifyCaller (address _address) { require (msg.sender == _address); _;}\n\n\tmodifier paidEnough(uint _price) { require(msg.value >= _price); _;}\n\tmodifier checkValue(uint _sku) {\n\t//refund them after pay for item (why it is before, _ checks for logic before func)\n\t\t_;\n\t\tuint _price = items[_sku].price;\n\t\tuint amountToRefund = msg.value - _price;\n\t\titems[_sku].buyer.transfer(amountToRefund);\n\t}\n\n\t/* For each of the following modifiers, use what you learned about modifiers\n\tto give them functionality. For example, the forSale modifier should require\n\tthat the item with the given sku has the state ForSale. \n\tNote that the uninitialized Item.State is 0, which is also the index of the ForSale value,\n\tso checking that Item.State == ForSale is not sufficient to check that an Item is for sale.\n\tHint: What item properties will be non-zero when an Item has been added?\n   \n\tPS: Uncomment the modifier but keep the name for testing purposes!\n\t*/\n  \n    modifier forSale(uint _sku) {\n\t\trequire(items[_sku].state == State.ForSale);\n\t\trequire(items[_sku].price != 0);\n\t\trequire(items[_sku].seller != address(0));\n\t\t_;\n\t}\n\tmodifier sold(uint _sku) { require(items[_sku].state == State.Sold); _;}\n\tmodifier shipped(uint _sku) { require(items[_sku].state == State.Shipped); _;}\n\tmodifier received(uint _sku) { require(items[_sku].state == State.Received); _;}\n  \n\tconstructor() public {\n    /* Here, set the owner as the person who instantiated the contract\n       and set your skuCount to 0. */\n\t   owner = msg.sender;\n\t   skuCount = 0;\n\t}\n\n\tfunction addItem(string memory _name, uint _price) public returns(bool){\n\t\temit LogForSale(skuCount);\n\t\titems[skuCount] = Item({name: _name, sku: skuCount, price: _price, state: State.ForSale, seller: msg.sender, buyer: address(0)});\n\t\tskuCount = skuCount + 1;\n\t\treturn true;\n\t}\n\n\t/* Add a keyword so the function can be paid. This function should transfer money\n    to the seller, set the buyer as the person who called this transaction, and set the state\n    to Sold. Be careful, this function should use 3 modifiers to check if the item is for sale,\n    if the buyer paid enough, and check the value after the function is called to make sure the buyer is\n    refunded any excess ether sent. Remember to call the event associated with this function!*/\n\n\tfunction buyItem(uint sku)\n\t\tpublic\n\t\tpayable\n\t\tforSale(sku)\n\t\tpaidEnough(items[sku].price)\n\t\tcheckValue(sku)\n\t{\n\t\titems[sku].seller.transfer(items[sku].price);\n\t\titems[sku].buyer = msg.sender;\n\t\titems[sku].state = State.Sold;\n\t\temit LogSold(sku);\n\t}\n\n\t/* Add 2 modifiers to check if the item is sold already, and that the person calling this function\n\tis the seller. Change the state of the item to shipped. Remember to call the event associated with this function!*/\n\tfunction shipItem(uint sku)\n\t\tpublic sold(sku) verifyCaller(items[sku].seller)\n\t{\n\t\titems[sku].state = State.Shipped;\n\t\temit LogShipped(sku);\n\t}\n\n\t/* Add 2 modifiers to check if the item is shipped already, and that the person calling this function\n\tis the buyer. Change the state of the item to received. Remember to call the event associated with this function!*/\n\tfunction receiveItem(uint sku)\n\t\tpublic shipped(sku) verifyCaller(items[sku].buyer)\n\t{\n\t\titems[sku].state = State.Received;\n\t\temit LogReceived(sku);\n\t}\n\n\t/* We have these functions completed so we can run tests, just ignore it :) */\n\tfunction fetchItem(uint _sku) public view returns (string memory name, uint sku, uint price, uint state, address seller, address buyer) {\n\t\tname = items[_sku].name;\n\t\tsku = items[_sku].sku;\n\t\tprice = items[_sku].price;\n\t\tstate = uint(items[_sku].state);\n\t\tseller = items[_sku].seller;\n\t\tbuyer = items[_sku].buyer;\n\t\treturn (name, sku, price, state, seller, buyer);\n\t} \n  \n}\n",
  "sourcePath": "/mnt/c/users/flore/Documents/supply-chain-exercise-MortalMelvin/contracts/SupplyChain.sol",
  "compiler": {
    "name": "solc",
    "version": "0.6.12+commit.27d51765.Emscripten.clang"
  },
  "schemaVersion": "3.3.2",
  "updatedAt": "2020-11-18T15:54:10.731Z",
  "devdoc": {
    "kind": "dev",
    "methods": {},
    "version": 1
  },
  "userdoc": {
    "kind": "user",
    "methods": {},
    "version": 1
  }
}